:10000000683084000730F000F830F10011208000E3
:10001000840A0408703A03191528F10A0319F00A32
:10002000062870088A00710882000A128A111828AE
:1000300003108316031300300318013088000310E7
:100040008312031300300318013088000030F000E1
:100050000030F1002B280310831203130030031823
:10006000013088007008683E84008313000888000F
:10007000F430F3007E30F4000A128A11E6270A12E7
:100080008A110130F0070318F10A0030F1077108F6
:10009000803AF20080307202031D5028083070024E
:1000A000031C532854282B2826280A128A110028BA
:100FCC00E72F0130F3020030031CF403F402FF306E
:100FDC007406031DF32FFF307306031DF62FF72F36
:100FEC00E72F080001340234043408341034203460
:040FFC0040348034C9
:00000001FF
